{
  "contractName": "Test",
  "abi": [
    {
      "inputs": [],
      "payable": false,
      "stateMutability": "nonpayable",
      "type": "constructor",
      "signature": "constructor"
    },
    {
      "anonymous": false,
      "inputs": [],
      "name": "TestingOutput",
      "type": "event",
      "signature": "0x766e290158b7e26ea4afe73a0209a437242b7b75addffaa086388fc496e803e1"
    },
    {
      "constant": false,
      "inputs": [],
      "name": "testFunctionEmit",
      "outputs": [
        {
          "name": "",
          "type": "bool"
        }
      ],
      "payable": false,
      "stateMutability": "nonpayable",
      "type": "function",
      "signature": "0xf66c9bb0"
    },
    {
      "constant": false,
      "inputs": [],
      "name": "testFunctionRequire",
      "outputs": [
        {
          "name": "",
          "type": "bool"
        },
        {
          "name": "",
          "type": "uint256"
        }
      ],
      "payable": false,
      "stateMutability": "nonpayable",
      "type": "function",
      "signature": "0x386bef76"
    }
  ],
  "bytecode": "0x608060405234801561001057600080fd5b5061019f806100206000396000f3fe60806040526004361061004c576000357c0100000000000000000000000000000000000000000000000000000000900463ffffffff168063386bef7614610051578063f66c9bb014610087575b600080fd5b34801561005d57600080fd5b506100666100b6565b60405180831515151581526020018281526020019250505060405180910390f35b34801561009357600080fd5b5061009c61013e565b604051808215151515815260200191505060405180910390f35b6000806000151561012f576040517f08c379a000000000000000000000000000000000000000000000000000000000815260040180806020018281038252601a8152602001807f736f6d657468696e6720696e76616c69642068617070656e656400000000000081525060200191505060405180910390fd5b6001602a809050915091509091565b60007f766e290158b7e26ea4afe73a0209a437242b7b75addffaa086388fc496e803e160405160405180910390a1600190509056fea165627a7a72305820610b3813d67ed4ed01e07b650860cf3a0bb0849896cacdff8a3ef139afe022960029",
  "source": "pragma solidity ^0.5.0;\n\ncontract Test {\n\n  event TestingOutput();\n\n  constructor() public {\n  }\n  \n  function testFunctionEmit() external returns (bool) {\n      emit TestingOutput();\n      return true;\n  }\n  \n  function testFunctionRequire() external returns (bool, uint256) {\n      require(false, \"something invalid happened\");\n      return (true, 42);\n  }\n}\n\n",
  "sourcePath": "/Users/ejwessel/Dev/test/contracts/Test.sol",
  "compiler": {
    "name": "solc",
    "version": "0.5.0+commit.1d4f565a.Emscripten.clang"
  },
  "schemaVersion": "3.0.2",
  "updatedAt": "2019-03-06T23:32:52.384Z",
  "devdoc": {
    "methods": {}
  },
  "userdoc": {
    "methods": {}
  }
}